{
  "contractName": "SharedWallet",
  "abi": [
    {
      "anonymous": false,
      "inputs": [
        {
          "indexed": true,
          "internalType": "address",
          "name": "_forWho",
          "type": "address"
        },
        {
          "indexed": true,
          "internalType": "address",
          "name": "_fromWhom",
          "type": "address"
        },
        {
          "indexed": false,
          "internalType": "uint256",
          "name": "_oldAmount",
          "type": "uint256"
        },
        {
          "indexed": false,
          "internalType": "uint256",
          "name": "_newAmount",
          "type": "uint256"
        }
      ],
      "name": "AllowanceChange",
      "type": "event"
    },
    {
      "anonymous": false,
      "inputs": [
        {
          "indexed": true,
          "internalType": "address",
          "name": "_from",
          "type": "address"
        },
        {
          "indexed": false,
          "internalType": "uint256",
          "name": "_amount",
          "type": "uint256"
        }
      ],
      "name": "MoneyReceived",
      "type": "event"
    },
    {
      "anonymous": false,
      "inputs": [
        {
          "indexed": true,
          "internalType": "address",
          "name": "_to",
          "type": "address"
        },
        {
          "indexed": false,
          "internalType": "uint256",
          "name": "_amount",
          "type": "uint256"
        }
      ],
      "name": "MoneySent",
      "type": "event"
    },
    {
      "anonymous": false,
      "inputs": [
        {
          "indexed": true,
          "internalType": "address",
          "name": "previousOwner",
          "type": "address"
        },
        {
          "indexed": true,
          "internalType": "address",
          "name": "newOwner",
          "type": "address"
        }
      ],
      "name": "OwnershipTransferred",
      "type": "event"
    },
    {
      "stateMutability": "payable",
      "type": "fallback"
    },
    {
      "inputs": [
        {
          "internalType": "address",
          "name": "_addr",
          "type": "address"
        }
      ],
      "name": "contains",
      "outputs": [
        {
          "internalType": "bool",
          "name": "",
          "type": "bool"
        }
      ],
      "stateMutability": "view",
      "type": "function"
    },
    {
      "inputs": [],
      "name": "getAllowances",
      "outputs": [
        {
          "internalType": "address[]",
          "name": "",
          "type": "address[]"
        },
        {
          "internalType": "uint256[]",
          "name": "",
          "type": "uint256[]"
        }
      ],
      "stateMutability": "view",
      "type": "function"
    },
    {
      "inputs": [],
      "name": "owner",
      "outputs": [
        {
          "internalType": "address",
          "name": "",
          "type": "address"
        }
      ],
      "stateMutability": "view",
      "type": "function"
    },
    {
      "inputs": [
        {
          "internalType": "address",
          "name": "_who",
          "type": "address"
        },
        {
          "internalType": "uint256",
          "name": "_amount",
          "type": "uint256"
        }
      ],
      "name": "setAllowance",
      "outputs": [],
      "stateMutability": "nonpayable",
      "type": "function"
    },
    {
      "inputs": [
        {
          "internalType": "address",
          "name": "newOwner",
          "type": "address"
        }
      ],
      "name": "transferOwnership",
      "outputs": [],
      "stateMutability": "nonpayable",
      "type": "function"
    },
    {
      "stateMutability": "payable",
      "type": "receive"
    },
    {
      "inputs": [
        {
          "internalType": "address payable",
          "name": "_to",
          "type": "address"
        },
        {
          "internalType": "uint256",
          "name": "_amount",
          "type": "uint256"
        }
      ],
      "name": "withdrawMoney",
      "outputs": [],
      "stateMutability": "nonpayable",
      "type": "function"
    },
    {
      "inputs": [],
      "name": "renounceOwnership",
      "outputs": [],
      "stateMutability": "nonpayable",
      "type": "function"
    }
  ],
  "bytecode": "0x608060405234801561001057600080fd5b5060006100216100c460201b60201c565b9050806000806101000a81548173ffffffffffffffffffffffffffffffffffffffff021916908373ffffffffffffffffffffffffffffffffffffffff1602179055508073ffffffffffffffffffffffffffffffffffffffff16600073ffffffffffffffffffffffffffffffffffffffff167f8be0079c531659141344cd1fd0a4f28419497f9722a3daafe3b4186f6b6457e060405160405180910390a3506100cc565b600033905090565b611278806100db6000396000f3fe6080604052600436106100745760003560e01c80638da5cb5b1161004e5780638da5cb5b146101f2578063df012a7414610233578063f274c897146102e7578063f2fde38b14610342576100c9565b8063310ec4a7146101195780635dbe47e814610174578063715018a6146101db576100c9565b366100c9573373ffffffffffffffffffffffffffffffffffffffff167f27b15ed4cf832749ed39f33a64e4707ed60a761485e41ffec7343ecaddc0c02a346040518082815260200191505060405180910390a2005b3373ffffffffffffffffffffffffffffffffffffffff167f27b15ed4cf832749ed39f33a64e4707ed60a761485e41ffec7343ecaddc0c02a346040518082815260200191505060405180910390a2005b34801561012557600080fd5b506101726004803603604081101561013c57600080fd5b81019080803573ffffffffffffffffffffffffffffffffffffffff16906020019092919080359060200190929190505050610393565b005b34801561018057600080fd5b506101c36004803603602081101561019757600080fd5b81019080803573ffffffffffffffffffffffffffffffffffffffff169060200190929190505050610674565b60405180821515815260200191505060405180910390f35b3480156101e757600080fd5b506101f0610736565b005b3480156101fe57600080fd5b5061020761086c565b604051808273ffffffffffffffffffffffffffffffffffffffff16815260200191505060405180910390f35b34801561023f57600080fd5b50610248610895565b604051808060200180602001838103835285818151815260200191508051906020019060200280838360005b8381101561028f578082015181840152602081019050610274565b50505050905001838103825284818151815260200191508051906020019060200280838360005b838110156102d15780820151818401526020810190506102b6565b5050505090500194505050505060405180910390f35b3480156102f357600080fd5b506103406004803603604081101561030a57600080fd5b81019080803573ffffffffffffffffffffffffffffffffffffffff16906020019092919080359060200190929190505050610a41565b005b34801561034e57600080fd5b506103916004803603602081101561036557600080fd5b81019080803573ffffffffffffffffffffffffffffffffffffffff169060200190929190505050610c13565b005b61039b610e1e565b73ffffffffffffffffffffffffffffffffffffffff1660008054906101000a900473ffffffffffffffffffffffffffffffffffffffff1673ffffffffffffffffffffffffffffffffffffffff161461045b576040517f08c379a00000000000000000000000000000000000000000000000000000000081526004018080602001828103825260208152602001807f4f776e61626c653a2063616c6c6572206973206e6f7420746865206f776e657281525060200191505060405180910390fd5b804710156104b4576040517f08c379a00000000000000000000000000000000000000000000000000000000081526004018080602001828103825260228152602001806112216022913960400191505060405180910390fd5b60006104bf83610674565b905080156105135781600160000160008573ffffffffffffffffffffffffffffffffffffffff1673ffffffffffffffffffffffffffffffffffffffff168152602001908152602001600020819055506105c0565b81600160000160008573ffffffffffffffffffffffffffffffffffffffff1673ffffffffffffffffffffffffffffffffffffffff1681526020019081526020016000208190555060018001839080600181540180825580915050600190039060005260206000200160009091909190916101000a81548173ffffffffffffffffffffffffffffffffffffffff021916908373ffffffffffffffffffffffffffffffffffffffff1602179055505b3373ffffffffffffffffffffffffffffffffffffffff168373ffffffffffffffffffffffffffffffffffffffff167fb7fcd1ac7446fafd05b55b992ee43202a4b84ff1c088609b934d59cd0fc3f045600160000160008773ffffffffffffffffffffffffffffffffffffffff1673ffffffffffffffffffffffffffffffffffffffff1681526020019081526020016000205485604051808381526020018281526020019250505060405180910390a3505050565b6000806001800180549050141561068e5760009050610731565b60006001800180549050905060005b8181101561072a578373ffffffffffffffffffffffffffffffffffffffff166001800182815481106106cb57fe5b9060005260206000200160009054906101000a900473ffffffffffffffffffffffffffffffffffffffff1673ffffffffffffffffffffffffffffffffffffffff16141561071d57600192505050610731565b808060010191505061069d565b5060009150505b919050565b61073e610e1e565b73ffffffffffffffffffffffffffffffffffffffff1660008054906101000a900473ffffffffffffffffffffffffffffffffffffffff1673ffffffffffffffffffffffffffffffffffffffff16146107fe576040517f08c379a00000000000000000000000000000000000000000000000000000000081526004018080602001828103825260208152602001807f4f776e61626c653a2063616c6c6572206973206e6f7420746865206f776e657281525060200191505060405180910390fd5b6040517f08c379a00000000000000000000000000000000000000000000000000000000081526004018080602001828103825260208152602001807f4e6f7420706f737369626c6520696e207468697320636f6e747261637421212181525060200191505060405180910390fd5b60008060009054906101000a900473ffffffffffffffffffffffffffffffffffffffff16905090565b60608060006001800180549050905060608167ffffffffffffffff811180156108bd57600080fd5b506040519080825280602002602001820160405280156108ec5781602001602082028036833780820191505090505b50905060608267ffffffffffffffff8111801561090857600080fd5b506040519080825280602002602001820160405280156109375781602001602082028036833780820191505090505b50905060005b83811015610a3357600060018001828154811061095657fe5b9060005260206000200160009054906101000a900473ffffffffffffffffffffffffffffffffffffffff1690508084838151811061099057fe5b602002602001019073ffffffffffffffffffffffffffffffffffffffff16908173ffffffffffffffffffffffffffffffffffffffff1681525050600160000160008273ffffffffffffffffffffffffffffffffffffffff1673ffffffffffffffffffffffffffffffffffffffff16815260200190815260200160002054838381518110610a1957fe5b60200260200101818152505050808060010191505061093d565b508181945094505050509091565b80610a4a610e26565b80610a97575080600160000160003373ffffffffffffffffffffffffffffffffffffffff1673ffffffffffffffffffffffffffffffffffffffff1681526020019081526020016000205410155b610b09576040517f08c379a00000000000000000000000000000000000000000000000000000000081526004018080602001828103825260168152602001807f596f7520617265206e6f7420616c6c6f77616e6365210000000000000000000081525060200191505060405180910390fd5b47821115610b62576040517f08c379a00000000000000000000000000000000000000000000000000000000081526004018080602001828103825260228152602001806111d96022913960400191505060405180910390fd5b610b6a610e26565b610b7957610b783383610e63565b5b8273ffffffffffffffffffffffffffffffffffffffff167f7f51d406915971d4ac1c91af96be5187ea6ab64753785aad519a533def80a41e836040518082815260200191505060405180910390a28273ffffffffffffffffffffffffffffffffffffffff166108fc839081150290604051600060405180830381858888f19350505050158015610c0d573d6000803e3d6000fd5b50505050565b610c1b610e1e565b73ffffffffffffffffffffffffffffffffffffffff1660008054906101000a900473ffffffffffffffffffffffffffffffffffffffff1673ffffffffffffffffffffffffffffffffffffffff1614610cdb576040517f08c379a00000000000000000000000000000000000000000000000000000000081526004018080602001828103825260208152602001807f4f776e61626c653a2063616c6c6572206973206e6f7420746865206f776e657281525060200191505060405180910390fd5b600073ffffffffffffffffffffffffffffffffffffffff168173ffffffffffffffffffffffffffffffffffffffff161415610d61576040517f08c379a00000000000000000000000000000000000000000000000000000000081526004018080602001828103825260268152602001806111fb6026913960400191505060405180910390fd5b8073ffffffffffffffffffffffffffffffffffffffff1660008054906101000a900473ffffffffffffffffffffffffffffffffffffffff1673ffffffffffffffffffffffffffffffffffffffff167f8be0079c531659141344cd1fd0a4f28419497f9722a3daafe3b4186f6b6457e060405160405180910390a3806000806101000a81548173ffffffffffffffffffffffffffffffffffffffff021916908373ffffffffffffffffffffffffffffffffffffffff16021790555050565b600033905090565b60003373ffffffffffffffffffffffffffffffffffffffff16610e4761086c565b73ffffffffffffffffffffffffffffffffffffffff1614905090565b80610e6c610e26565b80610eb9575080600160000160003373ffffffffffffffffffffffffffffffffffffffff1673ffffffffffffffffffffffffffffffffffffffff1681526020019081526020016000205410155b610f2b576040517f08c379a00000000000000000000000000000000000000000000000000000000081526004018080602001828103825260168152602001807f596f7520617265206e6f7420616c6c6f77616e6365210000000000000000000081525060200191505060405180910390fd5b3373ffffffffffffffffffffffffffffffffffffffff168373ffffffffffffffffffffffffffffffffffffffff167fb7fcd1ac7446fafd05b55b992ee43202a4b84ff1c088609b934d59cd0fc3f045600160000160008773ffffffffffffffffffffffffffffffffffffffff1673ffffffffffffffffffffffffffffffffffffffff1681526020019081526020016000205461101286600160000160008a73ffffffffffffffffffffffffffffffffffffffff1673ffffffffffffffffffffffffffffffffffffffff168152602001908152602001600020546110ce90919063ffffffff16565b604051808381526020018281526020019250505060405180910390a361108382600160000160008673ffffffffffffffffffffffffffffffffffffffff1673ffffffffffffffffffffffffffffffffffffffff168152602001908152602001600020546110ce90919063ffffffff16565b600160000160008573ffffffffffffffffffffffffffffffffffffffff1673ffffffffffffffffffffffffffffffffffffffff16815260200190815260200160002081905550505050565b600061111083836040518060400160405280601e81526020017f536166654d6174683a207375627472616374696f6e206f766572666c6f770000815250611118565b905092915050565b60008383111582906111c5576040517f08c379a00000000000000000000000000000000000000000000000000000000081526004018080602001828103825283818151815260200191508051906020019080838360005b8381101561118a57808201518184015260208101905061116f565b50505050905090810190601f1680156111b75780820380516001836020036101000a031916815260200191505b509250505060405180910390fd5b506000838503905080915050939250505056fe436f6e747261637420646f6573206e6f74206f776e20656e6f756768206d6f6e65794f776e61626c653a206e6577206f776e657220697320746865207a65726f20616464726573734163636f756e742062616c616e6365206973206e6f742073756666696369656e742ea264697066735822122052a39e33f9e0107be68802378d28ef3960b9eedeb77d82a1446f9dc8b6c9ea9764736f6c634300060c0033",
  "immutableReferences": {},
  "source": "// SPDX-License-Identifier:MIT\npragma solidity 0.6.12;\n\nimport '@openzeppelin/contracts/access/Ownable.sol';\nimport '@openzeppelin/contracts/math/SafeMath.sol';\n\n\ncontract Allowance is Ownable {\n    using SafeMath for uint;\n    \n    struct CustomMap {\n         mapping(address => uint) maps;\n         address[] keys;\n     }\n    \n    CustomMap allowance;\n\n    event AllowanceChange(address indexed _forWho, address indexed _fromWhom, uint _oldAmount, uint _newAmount);\n    \n    modifier ownerOrAllowance(uint _amount) {\n        require(isOwner() || allowance.maps[msg.sender] >= _amount, \"You are not allowance!\");\n        _;\n    }\n    \n    function isOwner() internal view returns(bool) {\n        return (owner() == msg.sender);\n    }\n    \n    function setAllowance(address _who, uint _amount) public onlyOwner {\n        require(address(this).balance >= _amount, \"Account balance is not sufficient.\");\n        bool contain = contains(_who);\n        if (contain) {\n            allowance.maps[_who] = _amount;\n        } else {\n            allowance.maps[_who] = _amount;\n            allowance.keys.push(_who);\n        }\n        emit AllowanceChange(_who, msg.sender, allowance.maps[_who], _amount);\n    }\n    \n    function reduceAllowance(address _who, uint _amount) internal ownerOrAllowance(_amount) {\n        emit AllowanceChange(_who, msg.sender, allowance.maps[_who], allowance.maps[_who].sub(_amount));\n        allowance.maps[_who] = allowance.maps[_who].sub(_amount);\n    }\n\n    function contains(address _addr) public view returns (bool) {\n        if (allowance.keys.length == 0) {\n           return false;\n        }\n        uint len = allowance.keys.length;\n        for (uint i = 0 ; i < len ; i++) {\n            if (allowance.keys[i] == _addr) {\n              return true;\n            }\n        }\n            return false;\n    } \n\n    function getAllowances() public view returns (address[] memory, uint[] memory) {\n        uint len = allowance.keys.length;\n        address[] memory keys = new address[](len);\n        uint[] memory values = new uint[](len);\n        for (uint i=0; i< len; i++) {\n            address key = allowance.keys[i];\n            keys[i] = key;\n            values[i] = allowance.maps[key];\n        }\n\n        return (keys, values);\n    }\n}\n\n\ncontract SharedWallet is Allowance {\n    \n    event MoneySent(address indexed _to, uint _amount);\n    event MoneyReceived(address indexed _from, uint _amount);\n    \n    function withdrawMoney(address payable _to, uint _amount) public ownerOrAllowance(_amount) {\n        require(_amount <= address(this).balance, \"Contract does not own enough money\");\n        if (!isOwner()) {\n            reduceAllowance(msg.sender, _amount);\n        }\n        emit MoneySent(_to, _amount);\n        _to.transfer(_amount);\n    }\n    \n    function renounceOwnership() public onlyOwner override{\n        revert(\"Not possible in this contract!!!\");\n    }\n    \n    fallback() external payable {\n        emit MoneyReceived(msg.sender, msg.value);\n    }\n    receive() external payable {\n        emit MoneyReceived(msg.sender, msg.value);\n    }    \n}\n",
  "sourcePath": "/home/henry/Code/learning_path/ethereum/shared_wallet/contracts/SharedWallet.sol",
  "compiler": {
    "name": "solc",
    "version": "0.6.12+commit.27d51765.Emscripten.clang"
  },
  "schemaVersion": "3.3.3",
  "updatedAt": "2021-02-01T01:47:42.539Z",
  "devdoc": {
    "kind": "dev",
    "methods": {
      "owner()": {
        "details": "Returns the address of the current owner."
      },
      "renounceOwnership()": {
        "details": "Leaves the contract without owner. It will not be possible to call `onlyOwner` functions anymore. Can only be called by the current owner. NOTE: Renouncing ownership will leave the contract without an owner, thereby removing any functionality that is only available to the owner."
      },
      "transferOwnership(address)": {
        "details": "Transfers ownership of the contract to a new account (`newOwner`). Can only be called by the current owner."
      }
    },
    "version": 1
  },
  "userdoc": {
    "kind": "user",
    "methods": {},
    "version": 1
  }
}